:060000000A128A110C280F
:10000800FE00030EF0000A08F1000A128A11E72820
:100018000A128A110F2883010A128A1113280A1258
:100028008A11C4200A128A1101308316031386002C
:100038008312031386182128222830280618252819
:10004800262830281930F8000030F9000A128A11E1
:1000580072200A128A111C2886183328342842284C
:10006800061C3728382842283230F8000030F900BA
:100078000A128A1172200A128A111C28861C452825
:1000880046285428061849284A2854284B30F8008E
:100098000030F9000A128A1172200A128A111C28EB
:1000A800861C572858286628061C5B285C28662862
:1000B8006430F8000030F9000A128A1172200A121E
:1000C8008A111C280030F800F9000A128A117220DF
:1000D8000A128A111C280A128A110C28F91B752881
:1000E80076289E287908803AFF0080307F02031D19
:1000F8007F28653078020318822883289E2879088B
:10010800F3007808F2001930F4000030F5000A1204
:100118008A119F200A128A117208743EFA00730825
:100128000318013E463EFB007A088312031395002C
:100138007B0896000800F601F701721CA428A52880
:10014800AB287408F6070318F70A7508F707013093
:100158000310F40DF50DFF3E031DAC28013003100C
:10016800F30CF20CFF3E031DB32872087304031D41
:10017800BE28BF28A1287708F3007608F2000800F7
:10018800831603130711831203130711113090000C
:100198000A3097003C308F00B0308E004630960011
:1001A800743095000C100C110530831603138C0065
:1001B800C0308B000030F800F9000A128A11722052
:1001C8000A128A110800831203130C1CEC28ED286C
:1001D800F3280C103C308F00B0308E0007150C1D32
:1001E800F628F728F9280C11071171088A00700EF3
:0801F8008300FE0E7E0E0900DB
:00000001FF
